{
  "_format": "hh-sol-artifact-1",
  "contractName": "Payment",
  "sourceName": "contracts/Payment.sol",
  "abi": [
    {
      "inputs": [],
      "name": "Insufficient_funds",
      "type": "error"
    },
    {
      "inputs": [],
      "name": "ZeroAddress",
      "type": "error"
    },
    {
      "anonymous": false,
      "inputs": [
        {
          "indexed": true,
          "internalType": "address",
          "name": "from",
          "type": "address"
        },
        {
          "indexed": true,
          "internalType": "address",
          "name": "to",
          "type": "address"
        },
        {
          "indexed": true,
          "internalType": "uint256",
          "name": "amount",
          "type": "uint256"
        }
      ],
      "name": "Fundsend",
      "type": "event"
    },
    {
      "inputs": [
        {
          "internalType": "address",
          "name": "_token",
          "type": "address"
        },
        {
          "internalType": "address",
          "name": "to",
          "type": "address"
        },
        {
          "internalType": "uint256",
          "name": "amount",
          "type": "uint256"
        }
      ],
      "name": "makePayment",
      "outputs": [],
      "stateMutability": "nonpayable",
      "type": "function"
    }
  ],
  "bytecode": "0x608060405234801561001057600080fd5b50610ac9806100206000396000f3fe608060405234801561001057600080fd5b506004361061002b5760003560e01c806387e660d314610030575b600080fd5b61004a60048036038101906100459190610660565b61004c565b005b600073ffffffffffffffffffffffffffffffffffffffff168273ffffffffffffffffffffffffffffffffffffffff16036100b2576040517fd92e233d00000000000000000000000000000000000000000000000000000000815260040160405180910390fd5b6000839050818173ffffffffffffffffffffffffffffffffffffffff166370a08231336040518263ffffffff1660e01b81526004016100f191906106c2565b602060405180830381865afa15801561010e573d6000803e3d6000fd5b505050506040513d601f19601f8201168201806040525081019061013291906106f2565b101561016a576040517fb2b7c7a000000000000000000000000000000000000000000000000000000000815260040160405180910390fd5b6101973330848473ffffffffffffffffffffffffffffffffffffffff16610223909392919063ffffffff16565b6101c283838373ffffffffffffffffffffffffffffffffffffffff166102ac9092919063ffffffff16565b818373ffffffffffffffffffffffffffffffffffffffff163373ffffffffffffffffffffffffffffffffffffffff167fa4ca228c63a3b7a5dd3981ae8d3485764679d863b4142152a964042efd8761bc60405160405180910390a450505050565b6102a6846323b872dd60e01b8585856040516024016102449392919061072e565b604051602081830303815290604052907bffffffffffffffffffffffffffffffffffffffffffffffffffffffff19166020820180517bffffffffffffffffffffffffffffffffffffffffffffffffffffffff8381831617835250505050610332565b50505050565b61032d8363a9059cbb60e01b84846040516024016102cb929190610765565b604051602081830303815290604052907bffffffffffffffffffffffffffffffffffffffffffffffffffffffff19166020820180517bffffffffffffffffffffffffffffffffffffffffffffffffffffffff8381831617835250505050610332565b505050565b6000610394826040518060400160405280602081526020017f5361666545524332303a206c6f772d6c6576656c2063616c6c206661696c65648152508573ffffffffffffffffffffffffffffffffffffffff166103fa9092919063ffffffff16565b90506000815114806103b65750808060200190518101906103b591906107c6565b5b6103f5576040517f08c379a00000000000000000000000000000000000000000000000000000000081526004016103ec90610876565b60405180910390fd5b505050565b60606104098484600085610412565b90509392505050565b606082471015610457576040517f08c379a000000000000000000000000000000000000000000000000000000000815260040161044e90610908565b60405180910390fd5b6000808673ffffffffffffffffffffffffffffffffffffffff1685876040516104809190610999565b60006040518083038185875af1925050503d80600081146104bd576040519150601f19603f3d011682016040523d82523d6000602084013e6104c2565b606091505b50915091506104d3878383876104df565b92505050949350505050565b60608315610541576000835103610539576104f985610554565b610538576040517f08c379a000000000000000000000000000000000000000000000000000000000815260040161052f906109fc565b60405180910390fd5b5b82905061054c565b61054b8383610577565b5b949350505050565b6000808273ffffffffffffffffffffffffffffffffffffffff163b119050919050565b60008251111561058a5781518083602001fd5b806040517f08c379a00000000000000000000000000000000000000000000000000000000081526004016105be9190610a71565b60405180910390fd5b600080fd5b600073ffffffffffffffffffffffffffffffffffffffff82169050919050565b60006105f7826105cc565b9050919050565b610607816105ec565b811461061257600080fd5b50565b600081359050610624816105fe565b92915050565b6000819050919050565b61063d8161062a565b811461064857600080fd5b50565b60008135905061065a81610634565b92915050565b600080600060608486031215610679576106786105c7565b5b600061068786828701610615565b935050602061069886828701610615565b92505060406106a98682870161064b565b9150509250925092565b6106bc816105ec565b82525050565b60006020820190506106d760008301846106b3565b92915050565b6000815190506106ec81610634565b92915050565b600060208284031215610708576107076105c7565b5b6000610716848285016106dd565b91505092915050565b6107288161062a565b82525050565b600060608201905061074360008301866106b3565b61075060208301856106b3565b61075d604083018461071f565b949350505050565b600060408201905061077a60008301856106b3565b610787602083018461071f565b9392505050565b60008115159050919050565b6107a38161078e565b81146107ae57600080fd5b50565b6000815190506107c08161079a565b92915050565b6000602082840312156107dc576107db6105c7565b5b60006107ea848285016107b1565b91505092915050565b600082825260208201905092915050565b7f5361666545524332303a204552433230206f7065726174696f6e20646964206e60008201527f6f74207375636365656400000000000000000000000000000000000000000000602082015250565b6000610860602a836107f3565b915061086b82610804565b604082019050919050565b6000602082019050818103600083015261088f81610853565b9050919050565b7f416464726573733a20696e73756666696369656e742062616c616e636520666f60008201527f722063616c6c0000000000000000000000000000000000000000000000000000602082015250565b60006108f26026836107f3565b91506108fd82610896565b604082019050919050565b60006020820190508181036000830152610921816108e5565b9050919050565b600081519050919050565b600081905092915050565b60005b8381101561095c578082015181840152602081019050610941565b60008484015250505050565b600061097382610928565b61097d8185610933565b935061098d81856020860161093e565b80840191505092915050565b60006109a58284610968565b915081905092915050565b7f416464726573733a2063616c6c20746f206e6f6e2d636f6e7472616374000000600082015250565b60006109e6601d836107f3565b91506109f1826109b0565b602082019050919050565b60006020820190508181036000830152610a15816109d9565b9050919050565b600081519050919050565b6000601f19601f8301169050919050565b6000610a4382610a1c565b610a4d81856107f3565b9350610a5d81856020860161093e565b610a6681610a27565b840191505092915050565b60006020820190508181036000830152610a8b8184610a38565b90509291505056fea264697066735822122029a4a45bfbe9aaace8f4c8e051abe285c5c598164322af1babc3c32fb092e82064736f6c63430008120033",
  "linkReferences": {},
  "deployedLinkReferences": {}
}